{
  "contractName": "TodoList",
  "abi": [
    {
      "inputs": [],
      "stateMutability": "nonpayable",
      "type": "constructor"
    },
    {
      "anonymous": false,
      "inputs": [
        {
          "components": [
            {
              "internalType": "uint256",
              "name": "id",
              "type": "uint256"
            },
            {
              "internalType": "string",
              "name": "content",
              "type": "string"
            },
            {
              "internalType": "bool",
              "name": "completed",
              "type": "bool"
            }
          ],
          "indexed": false,
          "internalType": "struct TodoList.Task",
          "name": "task",
          "type": "tuple"
        }
      ],
      "name": "ToggledTask",
      "type": "event"
    },
    {
      "inputs": [],
      "name": "taskCount",
      "outputs": [
        {
          "internalType": "uint256",
          "name": "",
          "type": "uint256"
        }
      ],
      "stateMutability": "view",
      "type": "function",
      "constant": true
    },
    {
      "inputs": [
        {
          "internalType": "uint256",
          "name": "",
          "type": "uint256"
        }
      ],
      "name": "tasks",
      "outputs": [
        {
          "internalType": "uint256",
          "name": "id",
          "type": "uint256"
        },
        {
          "internalType": "string",
          "name": "content",
          "type": "string"
        },
        {
          "internalType": "bool",
          "name": "completed",
          "type": "bool"
        }
      ],
      "stateMutability": "view",
      "type": "function",
      "constant": true
    },
    {
      "inputs": [],
      "name": "getTodoList",
      "outputs": [
        {
          "components": [
            {
              "internalType": "uint256",
              "name": "id",
              "type": "uint256"
            },
            {
              "internalType": "string",
              "name": "content",
              "type": "string"
            },
            {
              "internalType": "bool",
              "name": "completed",
              "type": "bool"
            }
          ],
          "internalType": "struct TodoList.Task[]",
          "name": "",
          "type": "tuple[]"
        }
      ],
      "stateMutability": "view",
      "type": "function",
      "constant": true
    },
    {
      "inputs": [
        {
          "internalType": "string",
          "name": "_content",
          "type": "string"
        }
      ],
      "name": "createTask",
      "outputs": [
        {
          "components": [
            {
              "internalType": "uint256",
              "name": "id",
              "type": "uint256"
            },
            {
              "internalType": "string",
              "name": "content",
              "type": "string"
            },
            {
              "internalType": "bool",
              "name": "completed",
              "type": "bool"
            }
          ],
          "internalType": "struct TodoList.Task[]",
          "name": "",
          "type": "tuple[]"
        }
      ],
      "stateMutability": "nonpayable",
      "type": "function"
    },
    {
      "inputs": [
        {
          "internalType": "uint256",
          "name": "_id",
          "type": "uint256"
        }
      ],
      "name": "toggleTask",
      "outputs": [],
      "stateMutability": "nonpayable",
      "type": "function"
    }
  ],
  "bytecode": "0x6080604052600080553480156200001557600080fd5b506200005c6040518060400160405280601281526020017f437265617465206d6f7265207461736b732100000000000000000000000000008152506200006360201b60201c565b50620003ce565b606060008081548092919062000079906200031d565b9190505550600160405180606001604052806000548152602001848152602001600015158152509080600181540180825580915050600190039060005260206000209060030201600090919091909150600082015181600001556020820151816001019080519060200190620000f192919062000234565b5060408201518160020160006101000a81548160ff02191690831515021790555050506001805480602002602001604051908101604052809291908181526020016000905b8282101562000229578382906000526020600020906003020160405180606001604052908160008201548152602001600182018054620001769062000399565b80601f0160208091040260200160405190810160405280929190818152602001828054620001a49062000399565b8015620001f55780601f10620001c957610100808354040283529160200191620001f5565b820191906000526020600020905b815481529060010190602001808311620001d757829003601f168201915b505050505081526020016002820160009054906101000a900460ff1615151515815250508152602001906001019062000136565b505050509050919050565b828054620002429062000399565b90600052602060002090601f016020900481019282620002665760008555620002b2565b82601f106200028157805160ff1916838001178555620002b2565b82800160010185558215620002b2579182015b82811115620002b157825182559160200191906001019062000294565b5b509050620002c19190620002c5565b5090565b5b80821115620002e0576000816000905550600101620002c6565b5090565b7f4e487b7100000000000000000000000000000000000000000000000000000000600052601160045260246000fd5b6000819050919050565b60006200032a8262000313565b91507fffffffffffffffffffffffffffffffffffffffffffffffffffffffffffffffff82036200035f576200035e620002e4565b5b600182019050919050565b7f4e487b7100000000000000000000000000000000000000000000000000000000600052602260045260246000fd5b60006002820490506001821680620003b257607f821691505b602082108103620003c857620003c76200036a565b5b50919050565b610d6780620003de6000396000f3fe608060405234801561001057600080fd5b50600436106100575760003560e01c80630c7a16be1461005c578063111002aa1461007a578063613137a4146100aa5780638d977672146100c6578063b6cb58a5146100f8575b600080fd5b610064610116565b60405161007191906108eb565b60405180910390f35b610094600480360381019061008f9190610a56565b61022c565b6040516100a191906108eb565b60405180910390f35b6100c460048036038101906100bf9190610acb565b6103ef565b005b6100e060048036038101906100db9190610acb565b610594565b6040516100ef93929190610b60565b60405180910390f35b610100610663565b60405161010d9190610b9e565b60405180910390f35b60606001805480602002602001604051908101604052809291908181526020016000905b8282101561022357838290600052602060002090600302016040518060600160405290816000820154815260200160018201805461017790610be8565b80601f01602080910402602001604051908101604052809291908181526020018280546101a390610be8565b80156101f05780601f106101c5576101008083540402835291602001916101f0565b820191906000526020600020905b8154815290600101906020018083116101d357829003601f168201915b505050505081526020016002820160009054906101000a900460ff1615151515815250508152602001906001019061013a565b50505050905090565b606060008081548092919061024090610c48565b91905055506001604051806060016040528060005481526020018481526020016000151581525090806001815401808255809150506001900390600052602060002090600302016000909190919091506000820151816000015560208201518160010190805190602001906102b6929190610669565b5060408201518160020160006101000a81548160ff02191690831515021790555050506001805480602002602001604051908101604052809291908181526020016000905b828210156103e457838290600052602060002090600302016040518060600160405290816000820154815260200160018201805461033890610be8565b80601f016020809104026020016040519081016040528092919081815260200182805461036490610be8565b80156103b15780601f10610386576101008083540402835291602001916103b1565b820191906000526020600020905b81548152906001019060200180831161039457829003601f168201915b505050505081526020016002820160009054906101000a900460ff161515151581525050815260200190600101906102fb565b505050509050919050565b60006001828154811061040557610404610c90565b5b90600052602060002090600302016040518060600160405290816000820154815260200160018201805461043890610be8565b80601f016020809104026020016040519081016040528092919081815260200182805461046490610be8565b80156104b15780601f10610486576101008083540402835291602001916104b1565b820191906000526020600020905b81548152906001019060200180831161049457829003601f168201915b505050505081526020016002820160009054906101000a900460ff1615151515815250509050806040015115816040019015159081151581525050806001838154811061050157610500610c90565b5b9060005260206000209060030201600082015181600001556020820151816001019080519060200190610535929190610669565b5060408201518160020160006101000a81548160ff0219169083151502179055509050507fc43a2c26b4b4d5dc7e2690648bec6105bcbc93ca17925b7b9606ed9e450b9813816040516105889190610d0f565b60405180910390a15050565b600181815481106105a457600080fd5b90600052602060002090600302016000915090508060000154908060010180546105cd90610be8565b80601f01602080910402602001604051908101604052809291908181526020018280546105f990610be8565b80156106465780601f1061061b57610100808354040283529160200191610646565b820191906000526020600020905b81548152906001019060200180831161062957829003601f168201915b5050505050908060020160009054906101000a900460ff16905083565b60005481565b82805461067590610be8565b90600052602060002090601f01602090048101928261069757600085556106de565b82601f106106b057805160ff19168380011785556106de565b828001600101855582156106de579182015b828111156106dd5782518255916020019190600101906106c2565b5b5090506106eb91906106ef565b5090565b5b808211156107085760008160009055506001016106f0565b5090565b600081519050919050565b600082825260208201905092915050565b6000819050602082019050919050565b6000819050919050565b61074b81610738565b82525050565b600081519050919050565b600082825260208201905092915050565b60005b8381101561078b578082015181840152602081019050610770565b8381111561079a576000848401525b50505050565b6000601f19601f8301169050919050565b60006107bc82610751565b6107c6818561075c565b93506107d681856020860161076d565b6107df816107a0565b840191505092915050565b60008115159050919050565b6107ff816107ea565b82525050565b600060608301600083015161081d6000860182610742565b506020830151848203602086015261083582826107b1565b915050604083015161084a60408601826107f6565b508091505092915050565b60006108618383610805565b905092915050565b6000602082019050919050565b60006108818261070c565b61088b8185610717565b93508360208202850161089d85610728565b8060005b858110156108d957848403895281516108ba8582610855565b94506108c583610869565b925060208a019950506001810190506108a1565b50829750879550505050505092915050565b600060208201905081810360008301526109058184610876565b905092915050565b6000604051905090565b600080fd5b600080fd5b600080fd5b600080fd5b7f4e487b7100000000000000000000000000000000000000000000000000000000600052604160045260246000fd5b610963826107a0565b810181811067ffffffffffffffff821117156109825761098161092b565b5b80604052505050565b600061099561090d565b90506109a1828261095a565b919050565b600067ffffffffffffffff8211156109c1576109c061092b565b5b6109ca826107a0565b9050602081019050919050565b82818337600083830152505050565b60006109f96109f4846109a6565b61098b565b905082815260208101848484011115610a1557610a14610926565b5b610a208482856109d7565b509392505050565b600082601f830112610a3d57610a3c610921565b5b8135610a4d8482602086016109e6565b91505092915050565b600060208284031215610a6c57610a6b610917565b5b600082013567ffffffffffffffff811115610a8a57610a8961091c565b5b610a9684828501610a28565b91505092915050565b610aa881610738565b8114610ab357600080fd5b50565b600081359050610ac581610a9f565b92915050565b600060208284031215610ae157610ae0610917565b5b6000610aef84828501610ab6565b91505092915050565b610b0181610738565b82525050565b600082825260208201905092915050565b6000610b2382610751565b610b2d8185610b07565b9350610b3d81856020860161076d565b610b46816107a0565b840191505092915050565b610b5a816107ea565b82525050565b6000606082019050610b756000830186610af8565b8181036020830152610b878185610b18565b9050610b966040830184610b51565b949350505050565b6000602082019050610bb36000830184610af8565b92915050565b7f4e487b7100000000000000000000000000000000000000000000000000000000600052602260045260246000fd5b60006002820490506001821680610c0057607f821691505b602082108103610c1357610c12610bb9565b5b50919050565b7f4e487b7100000000000000000000000000000000000000000000000000000000600052601160045260246000fd5b6000610c5382610738565b91507fffffffffffffffffffffffffffffffffffffffffffffffffffffffffffffffff8203610c8557610c84610c19565b5b600182019050919050565b7f4e487b7100000000000000000000000000000000000000000000000000000000600052603260045260246000fd5b6000606083016000830151610cd76000860182610742565b5060208301518482036020860152610cef82826107b1565b9150506040830151610d0460408601826107f6565b508091505092915050565b60006020820190508181036000830152610d298184610cbf565b90509291505056fea2646970667358221220d6f86d56a9a04d2bbf32724cb761d2c3c8f6647561a6e72a4c700dd94562384d64736f6c634300080d0033",
  "immutableReferences": {},
  "source": "// SPDX-License-Identifier: UNLICENSED \npragma solidity ^0.8.13;\n\n// Smart contract is application running on blockchain:\n// ie, it's a program stored on blockchain that when run (on EVM),\n// agrees to contract that it'll perform as intended\n\n// When deployed to a blockchain, smart contracts are just\n// compiled bytecode with a given location. Users then interact\n// with smart contracts by interacting with bytecode\n\ncontract TodoList {\n  uint public taskCount = 0; // State variable that's stored on blockchain, public keyword provides readonly fn\n  \n  constructor() public {\n    createTask(\"Create more tasks!\");\n  }\n    \n  struct Task {\n    uint id;\n    string content;\n    bool completed;\n  }\n  \n  event ToggledTask(Task task);\n  \n  Task[] public tasks;\n  \n  function getTodoList() public view returns (Task[] memory) {\n    return tasks;\n  }\n  \n  function createTask(string memory _content) public returns (Task[] memory) {\n    taskCount++;\n    tasks.push(Task(taskCount, _content, false));\n    return tasks;\n  }\n  \n  function toggleTask(uint _id) public {\n    Task memory _task = tasks[_id];\n    _task.completed = !_task.completed;\n    tasks[_id] = _task;\n    emit ToggledTask(_task);\n  }\n}",
  "sourcePath": "/Users/apaul23/web_dev/web3_tutorial/smart_contract/contracts/TodoList.sol",
  "compiler": {
    "name": "solc",
    "version": "0.8.13+commit.abaa5c0e.Emscripten.clang"
  },
  "schemaVersion": "3.4.16",
  "updatedAt": "2023-11-22T05:01:29.506Z",
  "networkType": "ethereum",
  "devdoc": {
    "kind": "dev",
    "methods": {},
    "version": 1
  },
  "userdoc": {
    "kind": "user",
    "methods": {},
    "version": 1
  }
}