{
  "contractName": "TodoList",
  "abi": [
    {
      "inputs": [],
      "stateMutability": "nonpayable",
      "type": "constructor"
    },
    {
      "anonymous": false,
      "inputs": [
        {
          "components": [
            {
              "internalType": "uint256",
              "name": "id",
              "type": "uint256"
            },
            {
              "internalType": "string",
              "name": "content",
              "type": "string"
            },
            {
              "internalType": "bool",
              "name": "completed",
              "type": "bool"
            }
          ],
          "indexed": false,
          "internalType": "struct TodoList.Task",
          "name": "task",
          "type": "tuple"
        }
      ],
      "name": "EditedTask",
      "type": "event"
    },
    {
      "anonymous": false,
      "inputs": [
        {
          "components": [
            {
              "internalType": "uint256",
              "name": "id",
              "type": "uint256"
            },
            {
              "internalType": "string",
              "name": "content",
              "type": "string"
            },
            {
              "internalType": "bool",
              "name": "completed",
              "type": "bool"
            }
          ],
          "indexed": false,
          "internalType": "struct TodoList.Task",
          "name": "task",
          "type": "tuple"
        }
      ],
      "name": "ToggledTask",
      "type": "event"
    },
    {
      "inputs": [],
      "name": "taskCount",
      "outputs": [
        {
          "internalType": "uint256",
          "name": "",
          "type": "uint256"
        }
      ],
      "stateMutability": "view",
      "type": "function",
      "constant": true
    },
    {
      "inputs": [
        {
          "internalType": "uint256",
          "name": "",
          "type": "uint256"
        }
      ],
      "name": "tasks",
      "outputs": [
        {
          "internalType": "uint256",
          "name": "id",
          "type": "uint256"
        },
        {
          "internalType": "string",
          "name": "content",
          "type": "string"
        },
        {
          "internalType": "bool",
          "name": "completed",
          "type": "bool"
        }
      ],
      "stateMutability": "view",
      "type": "function",
      "constant": true
    },
    {
      "inputs": [],
      "name": "getTodoList",
      "outputs": [
        {
          "components": [
            {
              "internalType": "uint256",
              "name": "id",
              "type": "uint256"
            },
            {
              "internalType": "string",
              "name": "content",
              "type": "string"
            },
            {
              "internalType": "bool",
              "name": "completed",
              "type": "bool"
            }
          ],
          "internalType": "struct TodoList.Task[]",
          "name": "",
          "type": "tuple[]"
        }
      ],
      "stateMutability": "view",
      "type": "function",
      "constant": true
    },
    {
      "inputs": [
        {
          "internalType": "string",
          "name": "_content",
          "type": "string"
        }
      ],
      "name": "createTask",
      "outputs": [
        {
          "components": [
            {
              "internalType": "uint256",
              "name": "id",
              "type": "uint256"
            },
            {
              "internalType": "string",
              "name": "content",
              "type": "string"
            },
            {
              "internalType": "bool",
              "name": "completed",
              "type": "bool"
            }
          ],
          "internalType": "struct TodoList.Task[]",
          "name": "",
          "type": "tuple[]"
        }
      ],
      "stateMutability": "nonpayable",
      "type": "function"
    },
    {
      "inputs": [
        {
          "internalType": "uint256",
          "name": "_id",
          "type": "uint256"
        },
        {
          "internalType": "string",
          "name": "_content",
          "type": "string"
        }
      ],
      "name": "editTask",
      "outputs": [],
      "stateMutability": "nonpayable",
      "type": "function"
    },
    {
      "inputs": [
        {
          "internalType": "uint256",
          "name": "_id",
          "type": "uint256"
        }
      ],
      "name": "toggleTask",
      "outputs": [],
      "stateMutability": "nonpayable",
      "type": "function"
    }
  ],
  "bytecode": "0x6080604052600080553480156200001557600080fd5b506200005c6040518060400160405280601281526020017f437265617465206d6f7265207461736b732100000000000000000000000000008152506200006360201b60201c565b50620003ce565b6060600160405180606001604052806000548152602001848152602001600015158152509080600181540180825580915050600190039060005260206000209060030201600090919091909150600082015181600001556020820151816001019080519060200190620000d892919062000234565b5060408201518160020160006101000a81548160ff02191690831515021790555050506000808154809291906200010f906200031d565b91905055506001805480602002602001604051908101604052809291908181526020016000905b8282101562000229578382906000526020600020906003020160405180606001604052908160008201548152602001600182018054620001769062000399565b80601f0160208091040260200160405190810160405280929190818152602001828054620001a49062000399565b8015620001f55780601f10620001c957610100808354040283529160200191620001f5565b820191906000526020600020905b815481529060010190602001808311620001d757829003601f168201915b505050505081526020016002820160009054906101000a900460ff1615151515815250508152602001906001019062000136565b505050509050919050565b828054620002429062000399565b90600052602060002090601f016020900481019282620002665760008555620002b2565b82601f106200028157805160ff1916838001178555620002b2565b82800160010185558215620002b2579182015b82811115620002b157825182559160200191906001019062000294565b5b509050620002c19190620002c5565b5090565b5b80821115620002e0576000816000905550600101620002c6565b5090565b7f4e487b7100000000000000000000000000000000000000000000000000000000600052601160045260246000fd5b6000819050919050565b60006200032a8262000313565b91507fffffffffffffffffffffffffffffffffffffffffffffffffffffffffffffffff82036200035f576200035e620002e4565b5b600182019050919050565b7f4e487b7100000000000000000000000000000000000000000000000000000000600052602260045260246000fd5b60006002820490506001821680620003b257607f821691505b602082108103620003c857620003c76200036a565b5b50919050565b610f8480620003de6000396000f3fe608060405234801561001057600080fd5b50600436106100625760003560e01c80630c7a16be14610067578063111002aa14610085578063613137a4146100b55780638d977672146100d1578063b6cb58a514610103578063cb7bd99514610121575b600080fd5b61006f61013d565b60405161007c9190610aac565b60405180910390f35b61009f600480360381019061009a9190610c17565b610253565b6040516100ac9190610aac565b60405180910390f35b6100cf60048036038101906100ca9190610c8c565b610416565b005b6100eb60048036038101906100e69190610c8c565b6105bb565b6040516100fa93929190610d21565b60405180910390f35b61010b61068a565b6040516101189190610d5f565b60405180910390f35b61013b60048036038101906101369190610d7a565b610690565b005b60606001805480602002602001604051908101604052809291908181526020016000905b8282101561024a57838290600052602060002090600302016040518060600160405290816000820154815260200160018201805461019e90610e05565b80601f01602080910402602001604051908101604052809291908181526020018280546101ca90610e05565b80156102175780601f106101ec57610100808354040283529160200191610217565b820191906000526020600020905b8154815290600101906020018083116101fa57829003601f168201915b505050505081526020016002820160009054906101000a900460ff16151515158152505081526020019060010190610161565b50505050905090565b60606001604051806060016040528060005481526020018481526020016000151581525090806001815401808255809150506001900390600052602060002090600302016000909190919091506000820151816000015560208201518160010190805190602001906102c692919061082a565b5060408201518160020160006101000a81548160ff02191690831515021790555050506000808154809291906102fb90610e65565b91905055506001805480602002602001604051908101604052809291908181526020016000905b8282101561040b57838290600052602060002090600302016040518060600160405290816000820154815260200160018201805461035f90610e05565b80601f016020809104026020016040519081016040528092919081815260200182805461038b90610e05565b80156103d85780601f106103ad576101008083540402835291602001916103d8565b820191906000526020600020905b8154815290600101906020018083116103bb57829003601f168201915b505050505081526020016002820160009054906101000a900460ff16151515158152505081526020019060010190610322565b505050509050919050565b60006001828154811061042c5761042b610ead565b5b90600052602060002090600302016040518060600160405290816000820154815260200160018201805461045f90610e05565b80601f016020809104026020016040519081016040528092919081815260200182805461048b90610e05565b80156104d85780601f106104ad576101008083540402835291602001916104d8565b820191906000526020600020905b8154815290600101906020018083116104bb57829003601f168201915b505050505081526020016002820160009054906101000a900460ff1615151515815250509050806040015115816040019015159081151581525050806001838154811061052857610527610ead565b5b906000526020600020906003020160008201518160000155602082015181600101908051906020019061055c92919061082a565b5060408201518160020160006101000a81548160ff0219169083151502179055509050507fc43a2c26b4b4d5dc7e2690648bec6105bcbc93ca17925b7b9606ed9e450b9813816040516105af9190610f2c565b60405180910390a15050565b600181815481106105cb57600080fd5b90600052602060002090600302016000915090508060000154908060010180546105f490610e05565b80601f016020809104026020016040519081016040528092919081815260200182805461062090610e05565b801561066d5780601f106106425761010080835404028352916020019161066d565b820191906000526020600020905b81548152906001019060200180831161065057829003601f168201915b5050505050908060020160009054906101000a900460ff16905083565b60005481565b6000600183815481106106a6576106a5610ead565b5b9060005260206000209060030201604051806060016040529081600082015481526020016001820180546106d990610e05565b80601f016020809104026020016040519081016040528092919081815260200182805461070590610e05565b80156107525780601f1061072757610100808354040283529160200191610752565b820191906000526020600020905b81548152906001019060200180831161073557829003601f168201915b505050505081526020016002820160009054906101000a900460ff1615151515815250509050818160200181905250806001848154811061079657610795610ead565b5b90600052602060002090600302016000820151816000015560208201518160010190805190602001906107ca92919061082a565b5060408201518160020160006101000a81548160ff0219169083151502179055509050507f08a00c05ea00eec2a10540dd2ee77238f0ab37185c7accfd56e21c86bf9776238160405161081d9190610f2c565b60405180910390a1505050565b82805461083690610e05565b90600052602060002090601f016020900481019282610858576000855561089f565b82601f1061087157805160ff191683800117855561089f565b8280016001018555821561089f579182015b8281111561089e578251825591602001919060010190610883565b5b5090506108ac91906108b0565b5090565b5b808211156108c95760008160009055506001016108b1565b5090565b600081519050919050565b600082825260208201905092915050565b6000819050602082019050919050565b6000819050919050565b61090c816108f9565b82525050565b600081519050919050565b600082825260208201905092915050565b60005b8381101561094c578082015181840152602081019050610931565b8381111561095b576000848401525b50505050565b6000601f19601f8301169050919050565b600061097d82610912565b610987818561091d565b935061099781856020860161092e565b6109a081610961565b840191505092915050565b60008115159050919050565b6109c0816109ab565b82525050565b60006060830160008301516109de6000860182610903565b50602083015184820360208601526109f68282610972565b9150506040830151610a0b60408601826109b7565b508091505092915050565b6000610a2283836109c6565b905092915050565b6000602082019050919050565b6000610a42826108cd565b610a4c81856108d8565b935083602082028501610a5e856108e9565b8060005b85811015610a9a5784840389528151610a7b8582610a16565b9450610a8683610a2a565b925060208a01995050600181019050610a62565b50829750879550505050505092915050565b60006020820190508181036000830152610ac68184610a37565b905092915050565b6000604051905090565b600080fd5b600080fd5b600080fd5b600080fd5b7f4e487b7100000000000000000000000000000000000000000000000000000000600052604160045260246000fd5b610b2482610961565b810181811067ffffffffffffffff82111715610b4357610b42610aec565b5b80604052505050565b6000610b56610ace565b9050610b628282610b1b565b919050565b600067ffffffffffffffff821115610b8257610b81610aec565b5b610b8b82610961565b9050602081019050919050565b82818337600083830152505050565b6000610bba610bb584610b67565b610b4c565b905082815260208101848484011115610bd657610bd5610ae7565b5b610be1848285610b98565b509392505050565b600082601f830112610bfe57610bfd610ae2565b5b8135610c0e848260208601610ba7565b91505092915050565b600060208284031215610c2d57610c2c610ad8565b5b600082013567ffffffffffffffff811115610c4b57610c4a610add565b5b610c5784828501610be9565b91505092915050565b610c69816108f9565b8114610c7457600080fd5b50565b600081359050610c8681610c60565b92915050565b600060208284031215610ca257610ca1610ad8565b5b6000610cb084828501610c77565b91505092915050565b610cc2816108f9565b82525050565b600082825260208201905092915050565b6000610ce482610912565b610cee8185610cc8565b9350610cfe81856020860161092e565b610d0781610961565b840191505092915050565b610d1b816109ab565b82525050565b6000606082019050610d366000830186610cb9565b8181036020830152610d488185610cd9565b9050610d576040830184610d12565b949350505050565b6000602082019050610d746000830184610cb9565b92915050565b60008060408385031215610d9157610d90610ad8565b5b6000610d9f85828601610c77565b925050602083013567ffffffffffffffff811115610dc057610dbf610add565b5b610dcc85828601610be9565b9150509250929050565b7f4e487b7100000000000000000000000000000000000000000000000000000000600052602260045260246000fd5b60006002820490506001821680610e1d57607f821691505b602082108103610e3057610e2f610dd6565b5b50919050565b7f4e487b7100000000000000000000000000000000000000000000000000000000600052601160045260246000fd5b6000610e70826108f9565b91507fffffffffffffffffffffffffffffffffffffffffffffffffffffffffffffffff8203610ea257610ea1610e36565b5b600182019050919050565b7f4e487b7100000000000000000000000000000000000000000000000000000000600052603260045260246000fd5b6000606083016000830151610ef46000860182610903565b5060208301518482036020860152610f0c8282610972565b9150506040830151610f2160408601826109b7565b508091505092915050565b60006020820190508181036000830152610f468184610edc565b90509291505056fea2646970667358221220f6965341ee36fa3d86e4b4370c90b247323061e1923173713ad462f3fe330a0b64736f6c634300080d0033",
  "immutableReferences": {},
  "source": "// SPDX-License-Identifier: UNLICENSED \npragma solidity ^0.8.13;\n\n// Smart contract is application running on blockchain:\n// ie, it's a program stored on blockchain that when run (on EVM),\n// agrees to contract that it'll perform as intended\n\n// When deployed to a blockchain, smart contracts are just\n// compiled bytecode with a given location. Users then interact\n// with smart contracts by interacting with bytecode\n\ncontract TodoList {\n  uint public taskCount = 0; // State variable that's stored on blockchain, public keyword provides readonly fn\n  \n  constructor() public {\n    createTask(\"Create more tasks!\");\n  }\n    \n  struct Task {\n    uint id;\n    string content;\n    bool completed;\n  }\n  \n  event ToggledTask(Task task);\n  event EditedTask(Task task);\n  \n  Task[] public tasks;\n  \n  function getTodoList() public view returns (Task[] memory) {\n    return tasks;\n  }\n  \n  function createTask(string memory _content) public returns (Task[] memory) {\n    tasks.push(Task(taskCount, _content, false));\n    taskCount++;\n    return tasks;\n  }\n  \n  function editTask(uint _id, string memory _content) public {\n    Task memory _task = tasks[_id];\n    _task.content = _content;\n    tasks[_id] = _task;\n    emit EditedTask(_task);\n  }\n  \n  function toggleTask(uint _id) public {\n    Task memory _task = tasks[_id];\n    _task.completed = !_task.completed;\n    tasks[_id] = _task;\n    emit ToggledTask(_task);\n  }\n}",
  "sourcePath": "/Users/apaul23/web_dev/web3_tutorial/smart_contract/contracts/TodoList.sol",
  "compiler": {
    "name": "solc",
    "version": "0.8.13+commit.abaa5c0e.Emscripten.clang"
  },
  "schemaVersion": "3.4.16",
  "updatedAt": "2023-11-22T07:26:32.327Z",
  "networkType": "ethereum",
  "devdoc": {
    "kind": "dev",
    "methods": {},
    "version": 1
  },
  "userdoc": {
    "kind": "user",
    "methods": {},
    "version": 1
  }
}